:1000000009C00EC00DC00CC00BC00AC009C008C09A
:1000100007C006C011241FBECFE9CDBF02D03EC02D
:10002000EFCF1F93CF93DF93B898C09AB99A81E02E
:1000300090E01ED08111C19A81E012E0C0E1D7E2C8
:10004000882381F0B09B02C081E00CC088B3812777
:1000500088BBCE010197F1F768B3627081E090E050
:100060000FD080E0B09BECCFCE010197F1F7EACF43
:10007000E199FECF1FBA8EBBE09A99278DB3089500
:10008000262FE199FECF1CBA1FBA8EBB2DBB0FB62F
:10009000F894E29AE19A0FBE01960895F894FFCF82
:00000001FF
